:100000000EC015C014C013C012C011C010C00FC064
:100010000EC00DC00CC00BC00AC009C008C011241E
:100020001FBECFE5D2E0DEBFCDBF02D08AC0E8CF91
:1000300087E087BB13BE83E88ABD32E247ECC0E8A5
:10004000DFE7E4E7F0E014E201E037B946B986B152
:10005000682F607486FDFBCF85B1282F209587FD22
:100060002DC09D2F981B892F8D3040F08C50990BFF
:1000700069EB70E041D0BF0150D06A5B59B588B3DD
:10008000867011F1651748F088B386958170922FBC
:10009000991F9927991F9817B9F088B3867039F07E
:1000A00089B5853270F488B3897F88BB13BE83ED30
:1000B00090E30197F1F700C00000C7CF8C2F821B9F
:1000C000D3CF845289BDF3CF662389F388B386707A
:1000D00041F419BD03BF27FF02C0C19AE8CFC29AFD
:1000E000E6CF561720F789B590E070E08496681740
:1000F000790740F7CB01E6CF0024552704C0080E4E
:10010000591F880F991F009729F076956795B8F3C6
:100110007105B9F7802D952F0895AA1BBB1B51E1DE
:1001200007C0AA1FBB1FA617B70710F0A61BB70B67
:10013000881F991F5A95A9F780959095BC01CD010C
:060140000895F894FFCFC2
:00000001FF
